{
  "contractName": "Ethership",
  "abi": [
    {
      "inputs": [],
      "stateMutability": "nonpayable",
      "type": "constructor"
    },
    {
      "inputs": [
        {
          "internalType": "uint256",
          "name": "",
          "type": "uint256"
        }
      ],
      "name": "allowedShippersAddress",
      "outputs": [
        {
          "internalType": "address",
          "name": "",
          "type": "address"
        }
      ],
      "stateMutability": "view",
      "type": "function",
      "constant": true
    },
    {
      "inputs": [
        {
          "internalType": "address",
          "name": "",
          "type": "address"
        }
      ],
      "name": "allowedShippersName",
      "outputs": [
        {
          "internalType": "string",
          "name": "",
          "type": "string"
        }
      ],
      "stateMutability": "view",
      "type": "function",
      "constant": true
    },
    {
      "inputs": [
        {
          "internalType": "address",
          "name": "",
          "type": "address"
        }
      ],
      "name": "sellersBalance",
      "outputs": [
        {
          "internalType": "uint256",
          "name": "",
          "type": "uint256"
        }
      ],
      "stateMutability": "view",
      "type": "function",
      "constant": true
    },
    {
      "inputs": [
        {
          "internalType": "uint256",
          "name": "",
          "type": "uint256"
        }
      ],
      "name": "shipments",
      "outputs": [
        {
          "internalType": "uint256",
          "name": "id",
          "type": "uint256"
        },
        {
          "internalType": "uint256",
          "name": "price",
          "type": "uint256"
        },
        {
          "internalType": "string",
          "name": "title",
          "type": "string"
        },
        {
          "internalType": "enum Ethership.Incoterm",
          "name": "contracted_incoterm",
          "type": "uint8"
        },
        {
          "internalType": "enum Ethership.Status",
          "name": "status",
          "type": "uint8"
        },
        {
          "internalType": "address",
          "name": "seller",
          "type": "address"
        },
        {
          "internalType": "address",
          "name": "shipper",
          "type": "address"
        },
        {
          "internalType": "address",
          "name": "buyer",
          "type": "address"
        },
        {
          "internalType": "string",
          "name": "shipper_notes",
          "type": "string"
        },
        {
          "internalType": "bool",
          "name": "refunded",
          "type": "bool"
        }
      ],
      "stateMutability": "view",
      "type": "function",
      "constant": true
    },
    {
      "inputs": [
        {
          "internalType": "address",
          "name": "",
          "type": "address"
        }
      ],
      "name": "shippersBalance",
      "outputs": [
        {
          "internalType": "uint256",
          "name": "",
          "type": "uint256"
        }
      ],
      "stateMutability": "view",
      "type": "function",
      "constant": true
    },
    {
      "inputs": [],
      "name": "totalShipments",
      "outputs": [
        {
          "internalType": "uint256",
          "name": "",
          "type": "uint256"
        }
      ],
      "stateMutability": "view",
      "type": "function",
      "constant": true
    },
    {
      "inputs": [
        {
          "internalType": "address",
          "name": "_newOwner",
          "type": "address"
        }
      ],
      "name": "updateOwner",
      "outputs": [],
      "stateMutability": "nonpayable",
      "type": "function"
    },
    {
      "inputs": [
        {
          "internalType": "uint256",
          "name": "_price",
          "type": "uint256"
        },
        {
          "internalType": "string",
          "name": "_title",
          "type": "string"
        }
      ],
      "name": "createShipment",
      "outputs": [],
      "stateMutability": "nonpayable",
      "type": "function"
    },
    {
      "inputs": [],
      "name": "getAllowedShippers",
      "outputs": [
        {
          "internalType": "address[]",
          "name": "",
          "type": "address[]"
        }
      ],
      "stateMutability": "view",
      "type": "function",
      "constant": true
    },
    {
      "inputs": [
        {
          "internalType": "string",
          "name": "_shipperName",
          "type": "string"
        },
        {
          "internalType": "address",
          "name": "_shipperAddress",
          "type": "address"
        }
      ],
      "name": "createShipper",
      "outputs": [],
      "stateMutability": "nonpayable",
      "type": "function"
    },
    {
      "inputs": [
        {
          "internalType": "address",
          "name": "_shipperAddress",
          "type": "address"
        }
      ],
      "name": "deleteShipper",
      "outputs": [],
      "stateMutability": "nonpayable",
      "type": "function"
    },
    {
      "inputs": [
        {
          "internalType": "uint256",
          "name": "_id",
          "type": "uint256"
        },
        {
          "internalType": "enum Ethership.Incoterm",
          "name": "_selected_incoterm",
          "type": "uint8"
        },
        {
          "internalType": "address",
          "name": "_shipper",
          "type": "address"
        }
      ],
      "name": "buyShipment",
      "outputs": [],
      "stateMutability": "payable",
      "type": "function",
      "payable": true
    },
    {
      "inputs": [
        {
          "internalType": "uint256",
          "name": "_id",
          "type": "uint256"
        },
        {
          "internalType": "enum Ethership.Status",
          "name": "_status",
          "type": "uint8"
        },
        {
          "internalType": "string",
          "name": "_notes",
          "type": "string"
        }
      ],
      "name": "updateShipment",
      "outputs": [],
      "stateMutability": "nonpayable",
      "type": "function"
    },
    {
      "inputs": [
        {
          "internalType": "enum Ethership.Incoterm",
          "name": "_incoterm",
          "type": "uint8"
        },
        {
          "internalType": "enum Ethership.Status",
          "name": "_status",
          "type": "uint8"
        }
      ],
      "name": "canBuyerWithdrawFunds",
      "outputs": [
        {
          "internalType": "bool",
          "name": "",
          "type": "bool"
        }
      ],
      "stateMutability": "pure",
      "type": "function",
      "constant": true
    },
    {
      "inputs": [
        {
          "internalType": "uint256",
          "name": "_id",
          "type": "uint256"
        }
      ],
      "name": "buyerWithdraw",
      "outputs": [],
      "stateMutability": "nonpayable",
      "type": "function"
    },
    {
      "inputs": [],
      "name": "sellerWithdraw",
      "outputs": [],
      "stateMutability": "nonpayable",
      "type": "function"
    },
    {
      "inputs": [],
      "name": "shipperWithdraw",
      "outputs": [],
      "stateMutability": "nonpayable",
      "type": "function"
    }
  ],
  "bytecode": "0x6080604052600060015534801561001557600080fd5b50336000806101000a81548173ffffffffffffffffffffffffffffffffffffffff021916908373ffffffffffffffffffffffffffffffffffffffff160217905550614245806100656000396000f3fe6080604052600436106100fe5760003560e01c80635bd4b5fc11610095578063a283c49d11610064578063a283c49d14610341578063b03fd85a1461036c578063b78c87c514610395578063c3956041146103be578063df129891146103e7576100fe565b80635bd4b5fc1461028757806366af746b146102c4578063880cdc31146102db5780638b38f3d214610304576100fe565b80631b975070116100d15780631b975070146101b057806320f90027146101ed5780632ac08a931461022a5780633a5d8af714610270576100fe565b8063036306fb146101035780631277a93c1461012e57806314c9d84b146101575780631b1f31b514610173575b600080fd5b34801561010f57600080fd5b50610118610410565b6040516101259190612ced565b60405180910390f35b34801561013a57600080fd5b5061015560048036038101906101509190612e95565b61049e565b005b610171600480360381019061016c9190612f4c565b6105e0565b005b34801561017f57600080fd5b5061019a60048036038101906101959190612f9f565b610cb6565b6040516101a79190612fdb565b60405180910390f35b3480156101bc57600080fd5b506101d760048036038101906101d29190612ff6565b610cf5565b6040516101e491906130ab565b60405180910390f35b3480156101f957600080fd5b50610214600480360381019061020f91906130f2565b610d95565b604051610221919061314d565b60405180910390f35b34801561023657600080fd5b50610251600480360381019061024c9190612f9f565b611038565b6040516102679a99989796959493929190613236565b60405180910390f35b34801561027c57600080fd5b50610285611223565b005b34801561029357600080fd5b506102ae60048036038101906102a99190612ff6565b611339565b6040516102bb91906132e0565b60405180910390f35b3480156102d057600080fd5b506102d9611351565b005b3480156102e757600080fd5b5061030260048036038101906102fd9190612ff6565b611467565b005b34801561031057600080fd5b5061032b60048036038101906103269190612ff6565b611538565b60405161033891906132e0565b60405180910390f35b34801561034d57600080fd5b50610356611550565b60405161036391906132e0565b60405180910390f35b34801561037857600080fd5b50610393600480360381019061038e9190612f9f565b611556565b005b3480156103a157600080fd5b506103bc60048036038101906103b791906132fb565b611c89565b005b3480156103ca57600080fd5b506103e560048036038101906103e09190613357565b611f49565b005b3480156103f357600080fd5b5061040e60048036038101906104099190612ff6565b6128c0565b005b6060600680548060200260200160405190810160405280929190818152602001828054801561049457602002820191906000526020600020905b8160009054906101000a900473ffffffffffffffffffffffffffffffffffffffff1673ffffffffffffffffffffffffffffffffffffffff168152602001906001019080831161044a575b5050505050905090565b60008054906101000a900473ffffffffffffffffffffffffffffffffffffffff1673ffffffffffffffffffffffffffffffffffffffff163373ffffffffffffffffffffffffffffffffffffffff161461052c576040517f08c379a000000000000000000000000000000000000000000000000000000000815260040161052390613438565b60405180910390fd5b81600560008373ffffffffffffffffffffffffffffffffffffffff1673ffffffffffffffffffffffffffffffffffffffff16815260200190815260200160002090816105789190613664565b506006819080600181540180825580915050600190039060005260206000200160009091909190916101000a81548173ffffffffffffffffffffffffffffffffffffffff021916908373ffffffffffffffffffffffffffffffffffffffff1602179055505050565b600060038111156105f4576105f3613177565b5b82600381111561060757610606613177565b5b03610647576040517f08c379a000000000000000000000000000000000000000000000000000000000815260040161063e906137a8565b60405180910390fd5b600073ffffffffffffffffffffffffffffffffffffffff168173ffffffffffffffffffffffffffffffffffffffff16036106b6576040517f08c379a00000000000000000000000000000000000000000000000000000000081526004016106ad90613814565b60405180910390fd5b6000600260008581526020019081526020016000206040518061014001604052908160008201548152602001600182015481526020016002820180546106fb90613487565b80601f016020809104026020016040519081016040528092919081815260200182805461072790613487565b80156107745780601f1061074957610100808354040283529160200191610774565b820191906000526020600020905b81548152906001019060200180831161075757829003601f168201915b505050505081526020016003820160009054906101000a900460ff1660038111156107a2576107a1613177565b5b60038111156107b4576107b3613177565b5b81526020016003820160019054906101000a900460ff1660058111156107dd576107dc613177565b5b60058111156107ef576107ee613177565b5b81526020016003820160029054906101000a900473ffffffffffffffffffffffffffffffffffffffff1673ffffffffffffffffffffffffffffffffffffffff1673ffffffffffffffffffffffffffffffffffffffff1681526020016004820160009054906101000a900473ffffffffffffffffffffffffffffffffffffffff1673ffffffffffffffffffffffffffffffffffffffff1673ffffffffffffffffffffffffffffffffffffffff1681526020016005820160009054906101000a900473ffffffffffffffffffffffffffffffffffffffff1673ffffffffffffffffffffffffffffffffffffffff1673ffffffffffffffffffffffffffffffffffffffff16815260200160068201805461090590613487565b80601f016020809104026020016040519081016040528092919081815260200182805461093190613487565b801561097e5780601f106109535761010080835404028352916020019161097e565b820191906000526020600020905b81548152906001019060200180831161096157829003601f168201915b505050505081526020016007820160009054906101000a900460ff161515151581525050905060008160200151116109eb576040517f08c379a00000000000000000000000000000000000000000000000000000000081526004016109e290613880565b60405180910390fd5b80602001513414610a31576040517f08c379a0000000000000000000000000000000000000000000000000000000008152600401610a2890613912565b60405180910390fd5b8281606001906003811115610a4957610a48613177565b5b90816003811115610a5d57610a5c613177565b5b81525050600181608001906005811115610a7a57610a79613177565b5b90816005811115610a8e57610a8d613177565b5b81525050818160c0019073ffffffffffffffffffffffffffffffffffffffff16908173ffffffffffffffffffffffffffffffffffffffff1681525050338160e0019073ffffffffffffffffffffffffffffffffffffffff16908173ffffffffffffffffffffffffffffffffffffffff1681525050806002600086815260200190815260200160002060008201518160000155602082015181600101556040820151816002019081610b3f9190613664565b5060608201518160030160006101000a81548160ff02191690836003811115610b6b57610b6a613177565b5b021790555060808201518160030160016101000a81548160ff02191690836005811115610b9b57610b9a613177565b5b021790555060a08201518160030160026101000a81548173ffffffffffffffffffffffffffffffffffffffff021916908373ffffffffffffffffffffffffffffffffffffffff16021790555060c08201518160040160006101000a81548173ffffffffffffffffffffffffffffffffffffffff021916908373ffffffffffffffffffffffffffffffffffffffff16021790555060e08201518160050160006101000a81548173ffffffffffffffffffffffffffffffffffffffff021916908373ffffffffffffffffffffffffffffffffffffffff160217905550610100820151816006019081610c8b9190613664565b506101208201518160070160006101000a81548160ff02191690831515021790555090505050505050565b60068181548110610cc657600080fd5b906000526020600020016000915054906101000a900473ffffffffffffffffffffffffffffffffffffffff1681565b60056020528060005260406000206000915090508054610d1490613487565b80601f0160208091040260200160405190810160405280929190818152602001828054610d4090613487565b8015610d8d5780601f10610d6257610100808354040283529160200191610d8d565b820191906000526020600020905b815481529060010190602001808311610d7057829003601f168201915b505050505081565b6000600580811115610daa57610da9613177565b5b826005811115610dbd57610dbc613177565b5b03610dcb5760009050611032565b60016003811115610ddf57610dde613177565b5b836003811115610df257610df1613177565b5b148015610e23575060026005811115610e0e57610e0d613177565b5b826005811115610e2157610e20613177565b5b145b15610e315760009050611032565b60016003811115610e4557610e44613177565b5b836003811115610e5857610e57613177565b5b148015610e89575060046005811115610e7457610e73613177565b5b826005811115610e8757610e86613177565b5b145b15610e975760009050611032565b60026003811115610eab57610eaa613177565b5b836003811115610ebe57610ebd613177565b5b148015610eef575060026005811115610eda57610ed9613177565b5b826005811115610eed57610eec613177565b5b145b15610efd5760019050611032565b60026003811115610f1157610f10613177565b5b836003811115610f2457610f23613177565b5b148015610f55575060046005811115610f4057610f3f613177565b5b826005811115610f5357610f52613177565b5b145b15610f635760009050611032565b600380811115610f7657610f75613177565b5b836003811115610f8957610f88613177565b5b148015610fba575060026005811115610fa557610fa4613177565b5b826005811115610fb857610fb7613177565b5b145b15610fc85760019050611032565b600380811115610fdb57610fda613177565b5b836003811115610fee57610fed613177565b5b14801561101f57506004600581111561100a57611009613177565b5b82600581111561101d5761101c613177565b5b145b1561102d5760019050611032565b600090505b92915050565b600260205280600052604060002060009150905080600001549080600101549080600201805461106790613487565b80601f016020809104026020016040519081016040528092919081815260200182805461109390613487565b80156110e05780601f106110b5576101008083540402835291602001916110e0565b820191906000526020600020905b8154815290600101906020018083116110c357829003601f168201915b5050505050908060030160009054906101000a900460ff16908060030160019054906101000a900460ff16908060030160029054906101000a900473ffffffffffffffffffffffffffffffffffffffff16908060040160009054906101000a900473ffffffffffffffffffffffffffffffffffffffff16908060050160009054906101000a900473ffffffffffffffffffffffffffffffffffffffff169080600601805461118d90613487565b80601f01602080910402602001604051908101604052809291908181526020018280546111b990613487565b80156112065780601f106111db57610100808354040283529160200191611206565b820191906000526020600020905b8154815290600101906020018083116111e957829003601f168201915b5050505050908060070160009054906101000a900460ff1690508a565b6000600360003373ffffffffffffffffffffffffffffffffffffffff1673ffffffffffffffffffffffffffffffffffffffff168152602001908152602001600020549050600081116112aa576040517f08c379a00000000000000000000000000000000000000000000000000000000081526004016112a19061397e565b60405180910390fd5b6000600360003373ffffffffffffffffffffffffffffffffffffffff1673ffffffffffffffffffffffffffffffffffffffff168152602001908152602001600020819055503373ffffffffffffffffffffffffffffffffffffffff166108fc829081150290604051600060405180830381858888f19350505050158015611335573d6000803e3d6000fd5b5050565b60036020528060005260406000206000915090505481565b6000600460003373ffffffffffffffffffffffffffffffffffffffff1673ffffffffffffffffffffffffffffffffffffffff168152602001908152602001600020549050600081116113d8576040517f08c379a00000000000000000000000000000000000000000000000000000000081526004016113cf9061397e565b60405180910390fd5b6000600460003373ffffffffffffffffffffffffffffffffffffffff1673ffffffffffffffffffffffffffffffffffffffff168152602001908152602001600020819055503373ffffffffffffffffffffffffffffffffffffffff166108fc829081150290604051600060405180830381858888f19350505050158015611463573d6000803e3d6000fd5b5050565b60008054906101000a900473ffffffffffffffffffffffffffffffffffffffff1673ffffffffffffffffffffffffffffffffffffffff163373ffffffffffffffffffffffffffffffffffffffff16146114f5576040517f08c379a00000000000000000000000000000000000000000000000000000000081526004016114ec90613a10565b60405180910390fd5b806000806101000a81548173ffffffffffffffffffffffffffffffffffffffff021916908373ffffffffffffffffffffffffffffffffffffffff16021790555050565b60046020528060005260406000206000915090505481565b60015481565b60006002600083815260200190815260200160002060405180610140016040529081600082015481526020016001820154815260200160028201805461159b90613487565b80601f01602080910402602001604051908101604052809291908181526020018280546115c790613487565b80156116145780601f106115e957610100808354040283529160200191611614565b820191906000526020600020905b8154815290600101906020018083116115f757829003601f168201915b505050505081526020016003820160009054906101000a900460ff16600381111561164257611641613177565b5b600381111561165457611653613177565b5b81526020016003820160019054906101000a900460ff16600581111561167d5761167c613177565b5b600581111561168f5761168e613177565b5b81526020016003820160029054906101000a900473ffffffffffffffffffffffffffffffffffffffff1673ffffffffffffffffffffffffffffffffffffffff1673ffffffffffffffffffffffffffffffffffffffff1681526020016004820160009054906101000a900473ffffffffffffffffffffffffffffffffffffffff1673ffffffffffffffffffffffffffffffffffffffff1673ffffffffffffffffffffffffffffffffffffffff1681526020016005820160009054906101000a900473ffffffffffffffffffffffffffffffffffffffff1673ffffffffffffffffffffffffffffffffffffffff1673ffffffffffffffffffffffffffffffffffffffff1681526020016006820180546117a590613487565b80601f01602080910402602001604051908101604052809291908181526020018280546117d190613487565b801561181e5780601f106117f35761010080835404028352916020019161181e565b820191906000526020600020905b81548152906001019060200180831161180157829003601f168201915b505050505081526020016007820160009054906101000a900460ff1615151515815250509050600081602001511161188b576040517f08c379a000000000000000000000000000000000000000000000000000000000815260040161188290613880565b60405180910390fd5b600015158161012001511515146118d7576040517f08c379a00000000000000000000000000000000000000000000000000000000081526004016118ce90613a7c565b60405180910390fd5b3373ffffffffffffffffffffffffffffffffffffffff168160e0015173ffffffffffffffffffffffffffffffffffffffff1614611949576040517f08c379a000000000000000000000000000000000000000000000000000000000815260040161194090613b0e565b60405180910390fd5b6001600581111561195d5761195c613177565b5b8160800151600581111561197457611973613177565b5b036119b4576040517f08c379a00000000000000000000000000000000000000000000000000000000081526004016119ab90613ba0565b60405180910390fd5b600360058111156119c8576119c7613177565b5b816080015160058111156119df576119de613177565b5b03611a1f576040517f08c379a0000000000000000000000000000000000000000000000000000000008152600401611a1690613c58565b60405180910390fd5b6000611a3382606001518360800151610d95565b905080611a75576040517f08c379a0000000000000000000000000000000000000000000000000000000008152600401611a6c90613cea565b60405180910390fd5b600182610120019015159081151581525050816002600085815260200190815260200160002060008201518160000155602082015181600101556040820151816002019081611ac49190613664565b5060608201518160030160006101000a81548160ff02191690836003811115611af057611aef613177565b5b021790555060808201518160030160016101000a81548160ff02191690836005811115611b2057611b1f613177565b5b021790555060a08201518160030160026101000a81548173ffffffffffffffffffffffffffffffffffffffff021916908373ffffffffffffffffffffffffffffffffffffffff16021790555060c08201518160040160006101000a81548173ffffffffffffffffffffffffffffffffffffffff021916908373ffffffffffffffffffffffffffffffffffffffff16021790555060e08201518160050160006101000a81548173ffffffffffffffffffffffffffffffffffffffff021916908373ffffffffffffffffffffffffffffffffffffffff160217905550610100820151816006019081611c109190613664565b506101208201518160070160006101000a81548160ff0219169083151502179055509050508160e0015173ffffffffffffffffffffffffffffffffffffffff166108fc83602001519081150290604051600060405180830381858888f19350505050158015611c83573d6000803e3d6000fd5b50505050565b6000815111611c9757600080fd5b60008211611ca457600080fd5b60006001549050600080600033905060008060006040518060200160405280600081525090506040518061014001604052808881526020018a8152602001898152602001876003811115611cfb57611cfa613177565b5b8152602001866005811115611d1357611d12613177565b5b81526020018573ffffffffffffffffffffffffffffffffffffffff1681526020018473ffffffffffffffffffffffffffffffffffffffff1681526020018373ffffffffffffffffffffffffffffffffffffffff168152602001828152602001600015158152506002600089815260200190815260200160002060008201518160000155602082015181600101556040820151816002019081611db59190613664565b5060608201518160030160006101000a81548160ff02191690836003811115611de157611de0613177565b5b021790555060808201518160030160016101000a81548160ff02191690836005811115611e1157611e10613177565b5b021790555060a08201518160030160026101000a81548173ffffffffffffffffffffffffffffffffffffffff021916908373ffffffffffffffffffffffffffffffffffffffff16021790555060c08201518160040160006101000a81548173ffffffffffffffffffffffffffffffffffffffff021916908373ffffffffffffffffffffffffffffffffffffffff16021790555060e08201518160050160006101000a81548173ffffffffffffffffffffffffffffffffffffffff021916908373ffffffffffffffffffffffffffffffffffffffff160217905550610100820151816006019081611f019190613664565b506101208201518160070160006101000a81548160ff02191690831515021790555090505060016000815480929190611f3990613d39565b9190505550505050505050505050565b60006005811115611f5d57611f5c613177565b5b826005811115611f7057611f6f613177565b5b03611fb0576040517f08c379a0000000000000000000000000000000000000000000000000000000008152600401611fa790613dcd565b60405180910390fd5b60016005811115611fc457611fc3613177565b5b826005811115611fd757611fd6613177565b5b03612017576040517f08c379a000000000000000000000000000000000000000000000000000000000815260040161200e90613dcd565b60405180910390fd5b60006002600085815260200190815260200160002060405180610140016040529081600082015481526020016001820154815260200160028201805461205c90613487565b80601f016020809104026020016040519081016040528092919081815260200182805461208890613487565b80156120d55780601f106120aa576101008083540402835291602001916120d5565b820191906000526020600020905b8154815290600101906020018083116120b857829003601f168201915b505050505081526020016003820160009054906101000a900460ff16600381111561210357612102613177565b5b600381111561211557612114613177565b5b81526020016003820160019054906101000a900460ff16600581111561213e5761213d613177565b5b60058111156121505761214f613177565b5b81526020016003820160029054906101000a900473ffffffffffffffffffffffffffffffffffffffff1673ffffffffffffffffffffffffffffffffffffffff1673ffffffffffffffffffffffffffffffffffffffff1681526020016004820160009054906101000a900473ffffffffffffffffffffffffffffffffffffffff1673ffffffffffffffffffffffffffffffffffffffff1673ffffffffffffffffffffffffffffffffffffffff1681526020016005820160009054906101000a900473ffffffffffffffffffffffffffffffffffffffff1673ffffffffffffffffffffffffffffffffffffffff1673ffffffffffffffffffffffffffffffffffffffff16815260200160068201805461226690613487565b80601f016020809104026020016040519081016040528092919081815260200182805461229290613487565b80156122df5780601f106122b4576101008083540402835291602001916122df565b820191906000526020600020905b8154815290600101906020018083116122c257829003601f168201915b505050505081526020016007820160009054906101000a900460ff1615151515815250509050600081602001511161234c576040517f08c379a000000000000000000000000000000000000000000000000000000000815260040161234390613880565b60405180910390fd5b60058081111561235f5761235e613177565b5b8160800151600581111561237657612375613177565b5b036123b6576040517f08c379a00000000000000000000000000000000000000000000000000000000081526004016123ad90613e5f565b60405180910390fd5b600460058111156123ca576123c9613177565b5b816080015160058111156123e1576123e0613177565b5b03612421576040517f08c379a000000000000000000000000000000000000000000000000000000000815260040161241890613ef1565b60405180910390fd5b6002600581111561243557612434613177565b5b8160800151600581111561244c5761244b613177565b5b0361248c576040517f08c379a000000000000000000000000000000000000000000000000000000000815260040161248390613ef1565b60405180910390fd5b806080015160058111156124a3576124a2613177565b5b8360058111156124b6576124b5613177565b5b116124f6576040517f08c379a00000000000000000000000000000000000000000000000000000000081526004016124ed90613f83565b60405180910390fd5b3373ffffffffffffffffffffffffffffffffffffffff168160c0015173ffffffffffffffffffffffffffffffffffffffff1614612568576040517f08c379a000000000000000000000000000000000000000000000000000000000815260040161255f90614015565b60405180910390fd5b82816080019060058111156125805761257f613177565b5b9081600581111561259457612593613177565b5b81525050818161010001819052506000600a82602001516125b59190614064565b90506000826020015190506005808111156125d3576125d2613177565b5b836080015160058111156125ea576125e9613177565b5b0361265c5781600360008560c0015173ffffffffffffffffffffffffffffffffffffffff1673ffffffffffffffffffffffffffffffffffffffff16815260200190815260200160002060008282546126429190614095565b9250508190555081836020015161265991906140eb565b90505b600061267084606001518560800151610d95565b1590508080156126a957506003600581111561268f5761268e613177565b5b846080015160058111156126a6576126a5613177565b5b14155b156127095781600460008660a0015173ffffffffffffffffffffffffffffffffffffffff1673ffffffffffffffffffffffffffffffffffffffff16815260200190815260200160002060008282546127019190614095565b925050819055505b8360026000898152602001908152602001600020600082015181600001556020820151816001015560408201518160020190816127469190613664565b5060608201518160030160006101000a81548160ff0219169083600381111561277257612771613177565b5b021790555060808201518160030160016101000a81548160ff021916908360058111156127a2576127a1613177565b5b021790555060a08201518160030160026101000a81548173ffffffffffffffffffffffffffffffffffffffff021916908373ffffffffffffffffffffffffffffffffffffffff16021790555060c08201518160040160006101000a81548173ffffffffffffffffffffffffffffffffffffffff021916908373ffffffffffffffffffffffffffffffffffffffff16021790555060e08201518160050160006101000a81548173ffffffffffffffffffffffffffffffffffffffff021916908373ffffffffffffffffffffffffffffffffffffffff1602179055506101008201518160060190816128929190613664565b506101208201518160070160006101000a81548160ff02191690831515021790555090505050505050505050565b60008054906101000a900473ffffffffffffffffffffffffffffffffffffffff1673ffffffffffffffffffffffffffffffffffffffff163373ffffffffffffffffffffffffffffffffffffffff161461294e576040517f08c379a000000000000000000000000000000000000000000000000000000000815260040161294590614191565b60405180910390fd5b60005b8173ffffffffffffffffffffffffffffffffffffffff166006828154811061297c5761297b6141b1565b5b9060005260206000200160009054906101000a900473ffffffffffffffffffffffffffffffffffffffff1673ffffffffffffffffffffffffffffffffffffffff16146129d55780806129cd90613d39565b915050612951565b600660016006805490506129e991906140eb565b815481106129fa576129f96141b1565b5b9060005260206000200160009054906101000a900473ffffffffffffffffffffffffffffffffffffffff1660068281548110612a3957612a386141b1565b5b9060005260206000200160006101000a81548173ffffffffffffffffffffffffffffffffffffffff021916908373ffffffffffffffffffffffffffffffffffffffff1602179055506006805480612a9357612a926141e0565b5b6001900381819060005260206000200160006101000a81549073ffffffffffffffffffffffffffffffffffffffff0219169055905560405180602001604052806000815250600560008473ffffffffffffffffffffffffffffffffffffffff1673ffffffffffffffffffffffffffffffffffffffff1681526020019081526020016000209081612b239190613664565b506000600360008473ffffffffffffffffffffffffffffffffffffffff1673ffffffffffffffffffffffffffffffffffffffff168152602001908152602001600020541115612bf9576000600360008473ffffffffffffffffffffffffffffffffffffffff1673ffffffffffffffffffffffffffffffffffffffff1681526020019081526020016000205490508273ffffffffffffffffffffffffffffffffffffffff166108fc829081150290604051600060405180830381858888f19350505050158015612bf6573d6000803e3d6000fd5b50505b5050565b600081519050919050565b600082825260208201905092915050565b6000819050602082019050919050565b600073ffffffffffffffffffffffffffffffffffffffff82169050919050565b6000612c5482612c29565b9050919050565b612c6481612c49565b82525050565b6000612c768383612c5b565b60208301905092915050565b6000602082019050919050565b6000612c9a82612bfd565b612ca48185612c08565b9350612caf83612c19565b8060005b83811015612ce0578151612cc78882612c6a565b9750612cd283612c82565b925050600181019050612cb3565b5085935050505092915050565b60006020820190508181036000830152612d078184612c8f565b905092915050565b6000604051905090565b600080fd5b600080fd5b600080fd5b600080fd5b6000601f19601f8301169050919050565b7f4e487b7100000000000000000000000000000000000000000000000000000000600052604160045260246000fd5b612d7682612d2d565b810181811067ffffffffffffffff82111715612d9557612d94612d3e565b5b80604052505050565b6000612da8612d0f565b9050612db48282612d6d565b919050565b600067ffffffffffffffff821115612dd457612dd3612d3e565b5b612ddd82612d2d565b9050602081019050919050565b82818337600083830152505050565b6000612e0c612e0784612db9565b612d9e565b905082815260208101848484011115612e2857612e27612d28565b5b612e33848285612dea565b509392505050565b600082601f830112612e5057612e4f612d23565b5b8135612e60848260208601612df9565b91505092915050565b612e7281612c49565b8114612e7d57600080fd5b50565b600081359050612e8f81612e69565b92915050565b60008060408385031215612eac57612eab612d19565b5b600083013567ffffffffffffffff811115612eca57612ec9612d1e565b5b612ed685828601612e3b565b9250506020612ee785828601612e80565b9150509250929050565b6000819050919050565b612f0481612ef1565b8114612f0f57600080fd5b50565b600081359050612f2181612efb565b92915050565b60048110612f3457600080fd5b50565b600081359050612f4681612f27565b92915050565b600080600060608486031215612f6557612f64612d19565b5b6000612f7386828701612f12565b9350506020612f8486828701612f37565b9250506040612f9586828701612e80565b9150509250925092565b600060208284031215612fb557612fb4612d19565b5b6000612fc384828501612f12565b91505092915050565b612fd581612c49565b82525050565b6000602082019050612ff06000830184612fcc565b92915050565b60006020828403121561300c5761300b612d19565b5b600061301a84828501612e80565b91505092915050565b600081519050919050565b600082825260208201905092915050565b60005b8381101561305d578082015181840152602081019050613042565b8381111561306c576000848401525b50505050565b600061307d82613023565b613087818561302e565b935061309781856020860161303f565b6130a081612d2d565b840191505092915050565b600060208201905081810360008301526130c58184613072565b905092915050565b600681106130da57600080fd5b50565b6000813590506130ec816130cd565b92915050565b6000806040838503121561310957613108612d19565b5b600061311785828601612f37565b9250506020613128858286016130dd565b9150509250929050565b60008115159050919050565b61314781613132565b82525050565b6000602082019050613162600083018461313e565b92915050565b61317181612ef1565b82525050565b7f4e487b7100000000000000000000000000000000000000000000000000000000600052602160045260246000fd5b600481106131b7576131b6613177565b5b50565b60008190506131c8826131a6565b919050565b60006131d8826131ba565b9050919050565b6131e8816131cd565b82525050565b600681106131ff576131fe613177565b5b50565b6000819050613210826131ee565b919050565b600061322082613202565b9050919050565b61323081613215565b82525050565b60006101408201905061324c600083018d613168565b613259602083018c613168565b818103604083015261326b818b613072565b905061327a606083018a6131df565b6132876080830189613227565b61329460a0830188612fcc565b6132a160c0830187612fcc565b6132ae60e0830186612fcc565b8181036101008301526132c18185613072565b90506132d161012083018461313e565b9b9a5050505050505050505050565b60006020820190506132f56000830184613168565b92915050565b6000806040838503121561331257613311612d19565b5b600061332085828601612f12565b925050602083013567ffffffffffffffff81111561334157613340612d1e565b5b61334d85828601612e3b565b9150509250929050565b6000806000606084860312156133705761336f612d19565b5b600061337e86828701612f12565b935050602061338f868287016130dd565b925050604084013567ffffffffffffffff8111156133b0576133af612d1e565b5b6133bc86828701612e3b565b9150509250925092565b7f596f7520617265206e6f7420616c6c6f77656420746f20616464206e6577207360008201527f6869707065727320000000000000000000000000000000000000000000000000602082015250565b600061342260288361302e565b915061342d826133c6565b604082019050919050565b6000602082019050818103600083015261345181613415565b9050919050565b7f4e487b7100000000000000000000000000000000000000000000000000000000600052602260045260246000fd5b6000600282049050600182168061349f57607f821691505b6020821081036134b2576134b1613458565b5b50919050565b60008190508160005260206000209050919050565b60006020601f8301049050919050565b600082821b905092915050565b60006008830261351a7fffffffffffffffffffffffffffffffffffffffffffffffffffffffffffffffff826134dd565b61352486836134dd565b95508019841693508086168417925050509392505050565b6000819050919050565b600061356161355c61355784612ef1565b61353c565b612ef1565b9050919050565b6000819050919050565b61357b83613546565b61358f61358782613568565b8484546134ea565b825550505050565b600090565b6135a4613597565b6135af818484613572565b505050565b5b818110156135d3576135c860008261359c565b6001810190506135b5565b5050565b601f821115613618576135e9816134b8565b6135f2846134cd565b81016020851015613601578190505b61361561360d856134cd565b8301826135b4565b50505b505050565b600082821c905092915050565b600061363b6000198460080261361d565b1980831691505092915050565b6000613654838361362a565b9150826002028217905092915050565b61366d82613023565b67ffffffffffffffff81111561368657613685612d3e565b5b6136908254613487565b61369b8282856135d7565b600060209050601f8311600181146136ce57600084156136bc578287015190505b6136c68582613648565b86555061372e565b601f1984166136dc866134b8565b60005b82811015613704578489015182556001820191506020850194506020810190506136df565b86831015613721578489015161371d601f89168261362a565b8355505b6001600288020188555050505b505050505050565b7f4d7573742063686f6f7365206f6e65206f66207468652061766169616c626c6560008201527f20696e636f7465726d7300000000000000000000000000000000000000000000602082015250565b6000613792602a8361302e565b915061379d82613736565b604082019050919050565b600060208201905081810360008301526137c181613785565b9050919050565b7f4d7573742073656c656374206120736869707065720000000000000000000000600082015250565b60006137fe60158361302e565b9150613809826137c8565b602082019050919050565b6000602082019050818103600083015261382d816137f1565b9050919050565b7f536869706d656e74206e6f74206578697374616e740000000000000000000000600082015250565b600061386a60158361302e565b915061387582613834565b602082019050919050565b600060208201905081810360008301526138998161385d565b9050919050565b7f4275796572206e6565647320746f20706179207468652065786163742070726960008201527f6365000000000000000000000000000000000000000000000000000000000000602082015250565b60006138fc60228361302e565b9150613907826138a0565b604082019050919050565b6000602082019050818103600083015261392b816138ef565b9050919050565b7f596f75722062616c616e6365206d75737420626520706f736974697665000000600082015250565b6000613968601d8361302e565b915061397382613932565b602082019050919050565b600060208201905081810360008301526139978161395b565b9050919050565b7f596f7520617265206e6f7420616c6c6f77656420746f206368616e676520746860008201527f65206f776e657273686970000000000000000000000000000000000000000000602082015250565b60006139fa602b8361302e565b9150613a058261399e565b604082019050919050565b60006020820190508181036000830152613a29816139ed565b9050919050565b7f536869706d656e7420616c726561647920726566756e64656400000000000000600082015250565b6000613a6660198361302e565b9150613a7182613a30565b602082019050919050565b60006020820190508181036000830152613a9581613a59565b9050919050565b7f596f7520617265206e6f7420746865206275796572206f66207468697320736860008201527f69706d656e740000000000000000000000000000000000000000000000000000602082015250565b6000613af860268361302e565b9150613b0382613a9c565b604082019050919050565b60006020820190508181036000830152613b2781613aeb565b9050919050565b7f596f7520617265206e6f7420616c6c6f77656420746f2077697468647261772060008201527f66756e64732c207768696c6520736869706d656e74206973204f726465726400602082015250565b6000613b8a603f8361302e565b9150613b9582613b2e565b604082019050919050565b60006020820190508181036000830152613bb981613b7d565b9050919050565b7f596f7520617265206e6f7420616c6c6f77656420746f2077697468647261772060008201527f66756e64732c207768696c6520736869706d656e7420697320496e5472616e7360208201527f6974000000000000000000000000000000000000000000000000000000000000604082015250565b6000613c4260428361302e565b9150613c4d82613bc0565b606082019050919050565b60006020820190508181036000830152613c7181613c35565b9050919050565b7f596f7520617265206e6f7420616c6c6f77656420746f2077697468647261772060008201527f66756e6473000000000000000000000000000000000000000000000000000000602082015250565b6000613cd460258361302e565b9150613cdf82613c78565b604082019050919050565b60006020820190508181036000830152613d0381613cc7565b9050919050565b7f4e487b7100000000000000000000000000000000000000000000000000000000600052601160045260246000fd5b6000613d4482612ef1565b91507fffffffffffffffffffffffffffffffffffffffffffffffffffffffffffffffff8203613d7657613d75613d0a565b5b600182019050919050565b7f4d7573742073656c65637420612076616c696420737461747573000000000000600082015250565b6000613db7601a8361302e565b9150613dc282613d81565b602082019050919050565b60006020820190508181036000830152613de681613daa565b9050919050565b7f43616e277420736574207468652073746174757320617320612064656c69766560008201527f7265642074776963650000000000000000000000000000000000000000000000602082015250565b6000613e4960298361302e565b9150613e5482613ded565b604082019050919050565b60006020820190508181036000830152613e7881613e3c565b9050919050565b7f43616e2774207265636f766572206120736869706d656e74206966206974206660008201527f61696c6564000000000000000000000000000000000000000000000000000000602082015250565b6000613edb60258361302e565b9150613ee682613e7f565b604082019050919050565b60006020820190508181036000830152613f0a81613ece565b9050919050565b7f43616e27742073656c65637420612073746174652074686174206973206c6f7760008201527f6572207468616e207468652061637475616c206f6e6500000000000000000000602082015250565b6000613f6d60368361302e565b9150613f7882613f11565b604082019050919050565b60006020820190508181036000830152613f9c81613f60565b9050919050565b7f596f7520617265206e6f7420616c6c6f77656420746f206368616e676520746860008201527f697320736869706d656e74207374617475730000000000000000000000000000602082015250565b6000613fff60328361302e565b915061400a82613fa3565b604082019050919050565b6000602082019050818103600083015261402e81613ff2565b9050919050565b7f4e487b7100000000000000000000000000000000000000000000000000000000600052601260045260246000fd5b600061406f82612ef1565b915061407a83612ef1565b92508261408a57614089614035565b5b828204905092915050565b60006140a082612ef1565b91506140ab83612ef1565b9250827fffffffffffffffffffffffffffffffffffffffffffffffffffffffffffffffff038211156140e0576140df613d0a565b5b828201905092915050565b60006140f682612ef1565b915061410183612ef1565b92508282101561411457614113613d0a565b5b828203905092915050565b7f596f7520617265206e6f7420616c6c6f77656420746f2064656c65746520736860008201527f6970706572730000000000000000000000000000000000000000000000000000602082015250565b600061417b60268361302e565b91506141868261411f565b604082019050919050565b600060208201905081810360008301526141aa8161416e565b9050919050565b7f4e487b7100000000000000000000000000000000000000000000000000000000600052603260045260246000fd5b7f4e487b7100000000000000000000000000000000000000000000000000000000600052603160045260246000fdfea2646970667358221220e6eeea03fbfef44d4950784e62892fafe337f3251139f2c704027052b704432764736f6c634300080f0033",
  "immutableReferences": {},
  "source": "//SPDX-License-Identifier: MIT\n\npragma solidity >=0.8.15 <0.9.0;\n\n\ncontract Ethership {\n    address owner;\n    uint public totalShipments = 0;\n\n    enum Incoterm {\n        NONE,\n        EXW,\n        FCA,\n        CPT\n    }\n\n    enum Status {\n        OnSale,\n        Ordered,\n        FailuredBeforeTransit,\n        InTransit,\n        FailureBeforeDelivery,\n        Delivered\n    }\n\n    struct Shipment {\n        uint id;\n        uint price;\n        string title;\n        Incoterm contracted_incoterm;\n        Status status;\n        address seller;\n        address shipper;\n        address buyer;\n        string shipper_notes;\n        bool refunded;\n    }\n\n    mapping(uint => Shipment) public shipments;\n    mapping(address => uint) public shippersBalance;\n    mapping(address => uint) public sellersBalance;\n    mapping(address=>string) public allowedShippersName;\n    address[] public allowedShippersAddress;\n\n    constructor() {\n        owner = msg.sender;\n    }\n\n    // updateOwner\n    function updateOwner(address _newOwner) public{\n        require(msg.sender==owner,\"You are not allowed to change the ownership\");\n        owner = _newOwner;\n    }\n\n    // this gets executed by a seller\n    function createShipment(uint _price, string memory _title) public {\n        require(bytes(_title).length > 0);\n        require(_price > 0);\n\n        uint _id = totalShipments;\n        Incoterm _contracted_incoterm = Incoterm.NONE;\n        Status _status = Status.OnSale;\n        address _seller = msg.sender;\n        address _shipper = address(0);\n        address _buyer = address(0);\n        string memory _notes = \"\";\n        shipments[_id] = Shipment(_id, _price, _title, _contracted_incoterm, _status, _seller, _shipper, _buyer, _notes, false);\n\n        totalShipments++;\n    }\n\n    function getAllowedShippers() public view returns (address[] memory) {\n        return allowedShippersAddress;\n    }\n\n    //createShipper\n    function createShipper(string memory _shipperName, address _shipperAddress) public {\n        require(msg.sender==owner,\"You are not allowed to add new shippers \");\n        allowedShippersName[_shipperAddress] = _shipperName;\n        allowedShippersAddress.push(_shipperAddress);\n    }\n    //deleteShipper\n    function deleteShipper(address _shipperAddress) public {\n        require(msg.sender==owner,\"You are not allowed to delete shippers\");\n        // find and delete shipperAddress from the array of shippers\n        uint _index = 0;\n        while (allowedShippersAddress[_index] != _shipperAddress){\n            _index++;\n        }\n        allowedShippersAddress[_index] = allowedShippersAddress[allowedShippersAddress.length - 1];\n        allowedShippersAddress.pop();\n        \n        // deleteShipperAddress from the name mappings\n        allowedShippersName[_shipperAddress] = \"\";\n\n        // send any remaining balance to the shipper\n        if(shippersBalance[_shipperAddress]>0) {\n            //Withdraw the balance og the shipper\n            uint balance = shippersBalance[_shipperAddress];\n            payable(_shipperAddress).transfer(balance);\n        }\n    }\n\n\n    // this gets executed by a buyer\n    function buyShipment(uint _id, Incoterm _selected_incoterm, address _shipper) public payable {\n        require(_selected_incoterm != Incoterm.NONE, \"Must choose one of the avaialble incoterms\");\n        // TODO: Create a list of available shipper\n        require(_shipper != address(0), \"Must select a shipper\");\n\n        Shipment memory _shipment = shipments[_id];\n        require(_shipment.price > 0, \"Shipment not existant\");\n\n        require(msg.value == _shipment.price, \"Buyer needs to pay the exact price\");\n\n        _shipment.contracted_incoterm = _selected_incoterm;\n        _shipment.status = Status.Ordered;\n        _shipment.shipper = _shipper;\n        _shipment.buyer = msg.sender;\n\n        shipments[_id] = _shipment;\n    }\n\n    // this gets executed by the shipper\n    function updateShipment(uint _id, Status _status, string memory _notes) public{\n        require(_status != Status.OnSale, \"Must select a valid status\");\n        require(_status != Status.Ordered, \"Must select a valid status\");\n        \n        Shipment memory _shipment = shipments[_id];\n        require(_shipment.price > 0, \"Shipment not existant\");\n        //If shipment is in state FailuredBeforeTransit,FailureBeforeDelivery or Delivered, then it can't be accessed anymore, \n        //you can't put a status that is lower than the actual status\n        require(_shipment.status != Status.Delivered, \"Can't set the status as a delivered twice\");\n        require(_shipment.status != Status.FailureBeforeDelivery, \"Can't recover a shipment if it failed\");\n        require(_shipment.status != Status.FailuredBeforeTransit, \"Can't recover a shipment if it failed\");\n        require(_status>_shipment.status,\"Can't select a state that is lower than the actual one\");\n        //The function caller must be the shipment shipper\n        require(_shipment.shipper==msg.sender,\"You are not allowed to change this shipment status\");\n        _shipment.status = _status;\n        _shipment.shipper_notes = _notes;\n\n        uint _shipper_rev = _shipment.price / 10;\n        uint _seller_rev = _shipment.price;\n\n        // If Shipment is delivered, seller only gets 90%\n        // If Incoterm (like the insurance happens), seller gets 100%\n        if (_shipment.status == Status.Delivered){\n            shippersBalance[_shipment.shipper] += _shipper_rev;\n            _seller_rev = _shipment.price - _shipper_rev;\n        }\n\n        bool updateSellerBalance = !canBuyerWithdrawFunds(_shipment.contracted_incoterm, _shipment.status);\n\n        if (updateSellerBalance && _shipment.status != Status.InTransit){\n            sellersBalance[_shipment.seller] += _seller_rev;\n        }\n\n        shipments[_id] = _shipment;\n        \n    }\n\n    function canBuyerWithdrawFunds(Incoterm _incoterm, Status _status) public pure returns (bool){\n        /*\n        CanBuyerWithdrawFunds\n        DELIVERED = NEI_MONEY\n        EXW,  (FailuredBeforeTransit, FailureBeforeDelivery) = (NEI_MONEY, NEI_MONEY)\n        FCA,  (FailuredBeforeTransit, FailureBeforeDelivery) = (YEI_MONEY, NEI_MONEY)\n        CPT,  (FailuredBeforeTransit, FailureBeforeDelivery) = (YEI_MONEY, YEI_MONEY)\n        CanSellerWithdrawFunds == !CanBuyerWithdawFunds\n        DELIVERED = YEI_MONEY\n        EXW,  (FailuredBeforeTransit, FailureBeforeDelivery) = (YEI_MONEY, YEI_MONEY)\n        FCA,  (FailuredBeforeTransit, FailureBeforeDelivery) = (NEI_MONEY, YEI_MONEY)\n        CPT,  (FailuredBeforeTransit, FailureBeforeDelivery) = (NEI_MONEY, NEI_MONEY)\n        */\n        \n        if (_status == Status.Delivered){\n            return false;\n        }\n\n        // Incoterms cover the FailureBeforeTransit and FailureBeforeDelivery\n        if (_incoterm == Incoterm.EXW && _status == Status.FailuredBeforeTransit){\n            return false;\n        }\n\n        if (_incoterm == Incoterm.EXW && _status == Status.FailureBeforeDelivery){\n            return false;\n        }\n\n        if (_incoterm == Incoterm.FCA && _status == Status.FailuredBeforeTransit){\n            return true;\n        }\n\n        if (_incoterm == Incoterm.FCA && _status == Status.FailureBeforeDelivery){\n            return false;\n        }\n\n        if (_incoterm == Incoterm.CPT && _status == Status.FailuredBeforeTransit){\n            return true;\n        }\n\n        if (_incoterm == Incoterm.CPT && _status == Status.FailureBeforeDelivery){\n            return true;\n        }\n        return false;\n    }\n\n    function buyerWithdraw(uint _id) public {\n        Shipment memory _shipment = shipments[_id];\n        require(_shipment.price > 0, \"Shipment not existant\");\n        require(_shipment.refunded == false, \"Shipment already refunded\");\n\n        require(_shipment.buyer == msg.sender, \"You are not the buyer of this shipment\");\n\n        require(_shipment.status != Status.Ordered, \"You are not allowed to withdraw funds, while shipment is Orderd\");\n        require(_shipment.status != Status.InTransit, \"You are not allowed to withdraw funds, while shipment is InTransit\");\n\n        bool canWithdraw = canBuyerWithdrawFunds(_shipment.contracted_incoterm, _shipment.status);\n        require(canWithdraw, \"You are not allowed to withdraw funds\");\n\n        _shipment.refunded = true;\n        shipments[_id] = _shipment;\n\n        payable(_shipment.buyer).transfer(_shipment.price);\n    }\n    function sellerWithdraw() public {\n        uint balance = sellersBalance[msg.sender];\n        require(balance > 0, \"Your balance must be positive\");\n\n        sellersBalance[msg.sender] = 0;\n        payable(msg.sender).transfer(balance);\n    }\n    function shipperWithdraw() public {\n        uint balance = shippersBalance[msg.sender];\n        require(balance > 0, \"Your balance must be positive\");\n\n        shippersBalance[msg.sender] = 0;\n        payable(msg.sender).transfer(balance);\n    }\n\n\n\n}",
  "sourcePath": "/Users/luiscabrera/Inbox/ethership/contracts/Ethership.sol",
  "compiler": {
    "name": "solc",
    "version": "0.8.15+commit.e14f2714.Emscripten.clang"
  },
  "schemaVersion": "3.4.10",
  "updatedAt": "2022-12-18T22:36:21.376Z",
  "networkType": "ethereum",
  "devdoc": {
    "kind": "dev",
    "methods": {},
    "version": 1
  },
  "userdoc": {
    "kind": "user",
    "methods": {},
    "version": 1
  }
}