{
  "contractName": "Ethership",
  "abi": [
    {
      "inputs": [],
      "stateMutability": "nonpayable",
      "type": "constructor"
    },
    {
      "inputs": [
        {
          "internalType": "uint256",
          "name": "",
          "type": "uint256"
        }
      ],
      "name": "allowedShippersAddress",
      "outputs": [
        {
          "internalType": "address",
          "name": "",
          "type": "address"
        }
      ],
      "stateMutability": "view",
      "type": "function",
      "constant": true
    },
    {
      "inputs": [
        {
          "internalType": "address",
          "name": "",
          "type": "address"
        }
      ],
      "name": "allowedShippersName",
      "outputs": [
        {
          "internalType": "string",
          "name": "",
          "type": "string"
        }
      ],
      "stateMutability": "view",
      "type": "function",
      "constant": true
    },
    {
      "inputs": [
        {
          "internalType": "address",
          "name": "",
          "type": "address"
        }
      ],
      "name": "sellersBalance",
      "outputs": [
        {
          "internalType": "uint256",
          "name": "",
          "type": "uint256"
        }
      ],
      "stateMutability": "view",
      "type": "function",
      "constant": true
    },
    {
      "inputs": [
        {
          "internalType": "uint256",
          "name": "",
          "type": "uint256"
        }
      ],
      "name": "shipments",
      "outputs": [
        {
          "internalType": "uint256",
          "name": "id",
          "type": "uint256"
        },
        {
          "internalType": "uint256",
          "name": "price",
          "type": "uint256"
        },
        {
          "internalType": "string",
          "name": "title",
          "type": "string"
        },
        {
          "internalType": "enum Ethership.Incoterm",
          "name": "contracted_incoterm",
          "type": "uint8"
        },
        {
          "internalType": "enum Ethership.Status",
          "name": "status",
          "type": "uint8"
        },
        {
          "internalType": "address",
          "name": "seller",
          "type": "address"
        },
        {
          "internalType": "address",
          "name": "shipper",
          "type": "address"
        },
        {
          "internalType": "address",
          "name": "buyer",
          "type": "address"
        },
        {
          "internalType": "string",
          "name": "shipper_notes",
          "type": "string"
        }
      ],
      "stateMutability": "view",
      "type": "function",
      "constant": true
    },
    {
      "inputs": [
        {
          "internalType": "address",
          "name": "",
          "type": "address"
        }
      ],
      "name": "shippersBalance",
      "outputs": [
        {
          "internalType": "uint256",
          "name": "",
          "type": "uint256"
        }
      ],
      "stateMutability": "view",
      "type": "function",
      "constant": true
    },
    {
      "inputs": [],
      "name": "totalShipments",
      "outputs": [
        {
          "internalType": "uint256",
          "name": "",
          "type": "uint256"
        }
      ],
      "stateMutability": "view",
      "type": "function",
      "constant": true
    },
    {
      "inputs": [
        {
          "internalType": "address",
          "name": "_newOwner",
          "type": "address"
        }
      ],
      "name": "updateOwner",
      "outputs": [],
      "stateMutability": "nonpayable",
      "type": "function"
    },
    {
      "inputs": [
        {
          "internalType": "uint256",
          "name": "_price",
          "type": "uint256"
        },
        {
          "internalType": "string",
          "name": "_title",
          "type": "string"
        }
      ],
      "name": "createShipment",
      "outputs": [],
      "stateMutability": "nonpayable",
      "type": "function"
    },
    {
      "inputs": [],
      "name": "getAllowedShippers",
      "outputs": [
        {
          "internalType": "address[]",
          "name": "",
          "type": "address[]"
        }
      ],
      "stateMutability": "view",
      "type": "function",
      "constant": true
    },
    {
      "inputs": [
        {
          "internalType": "string",
          "name": "_shipperName",
          "type": "string"
        },
        {
          "internalType": "address",
          "name": "_shipperAddress",
          "type": "address"
        }
      ],
      "name": "createShipper",
      "outputs": [],
      "stateMutability": "nonpayable",
      "type": "function"
    },
    {
      "inputs": [
        {
          "internalType": "address",
          "name": "_shipperAddress",
          "type": "address"
        }
      ],
      "name": "deleteShipper",
      "outputs": [],
      "stateMutability": "nonpayable",
      "type": "function"
    },
    {
      "inputs": [
        {
          "internalType": "uint256",
          "name": "_id",
          "type": "uint256"
        },
        {
          "internalType": "enum Ethership.Incoterm",
          "name": "_selected_incoterm",
          "type": "uint8"
        },
        {
          "internalType": "address",
          "name": "_shipper",
          "type": "address"
        }
      ],
      "name": "buyShipment",
      "outputs": [],
      "stateMutability": "payable",
      "type": "function",
      "payable": true
    },
    {
      "inputs": [
        {
          "internalType": "uint256",
          "name": "_id",
          "type": "uint256"
        },
        {
          "internalType": "enum Ethership.Status",
          "name": "_status",
          "type": "uint8"
        },
        {
          "internalType": "string",
          "name": "_notes",
          "type": "string"
        }
      ],
      "name": "updateShipment",
      "outputs": [],
      "stateMutability": "nonpayable",
      "type": "function"
    },
    {
      "inputs": [
        {
          "internalType": "enum Ethership.Incoterm",
          "name": "_incoterm",
          "type": "uint8"
        },
        {
          "internalType": "enum Ethership.Status",
          "name": "_status",
          "type": "uint8"
        }
      ],
      "name": "canBuyerWithdrawFunds",
      "outputs": [
        {
          "internalType": "bool",
          "name": "",
          "type": "bool"
        }
      ],
      "stateMutability": "pure",
      "type": "function",
      "constant": true
    },
    {
      "inputs": [
        {
          "internalType": "uint256",
          "name": "_id",
          "type": "uint256"
        }
      ],
      "name": "buyerWithdraw",
      "outputs": [],
      "stateMutability": "nonpayable",
      "type": "function"
    },
    {
      "inputs": [],
      "name": "sellerWithdraw",
      "outputs": [],
      "stateMutability": "nonpayable",
      "type": "function"
    },
    {
      "inputs": [],
      "name": "shipperWithdraw",
      "outputs": [],
      "stateMutability": "nonpayable",
      "type": "function"
    }
  ],
  "bytecode": "0x6080604052600060015534801561001557600080fd5b50336000806101000a81548173ffffffffffffffffffffffffffffffffffffffff021916908373ffffffffffffffffffffffffffffffffffffffff160217905550613e63806100656000396000f3fe6080604052600436106100fe5760003560e01c80635bd4b5fc11610095578063a283c49d11610064578063a283c49d14610340578063b03fd85a1461036b578063b78c87c514610394578063c3956041146103bd578063df129891146103e6576100fe565b80635bd4b5fc1461028657806366af746b146102c3578063880cdc31146102da5780638b38f3d214610303576100fe565b80631b975070116100d15780631b975070146101b057806320f90027146101ed5780632ac08a931461022a5780633a5d8af71461026f576100fe565b8063036306fb146101035780631277a93c1461012e57806314c9d84b146101575780631b1f31b514610173575b600080fd5b34801561010f57600080fd5b5061011861040f565b6040516101259190612986565b60405180910390f35b34801561013a57600080fd5b5061015560048036038101906101509190612b2e565b61049d565b005b610171600480360381019061016c9190612be5565b6105df565b005b34801561017f57600080fd5b5061019a60048036038101906101959190612c38565b610c79565b6040516101a79190612c74565b60405180910390f35b3480156101bc57600080fd5b506101d760048036038101906101d29190612c8f565b610cb8565b6040516101e49190612d44565b60405180910390f35b3480156101f957600080fd5b50610214600480360381019061020f9190612d8b565b610d58565b6040516102219190612de6565b60405180910390f35b34801561023657600080fd5b50610251600480360381019061024c9190612c38565b610ffb565b60405161026699989796959493929190612ecf565b60405180910390f35b34801561027b57600080fd5b506102846111d3565b005b34801561029257600080fd5b506102ad60048036038101906102a89190612c8f565b6112a4565b6040516102ba9190612f6a565b60405180910390f35b3480156102cf57600080fd5b506102d86112bc565b005b3480156102e657600080fd5b5061030160048036038101906102fc9190612c8f565b61138d565b005b34801561030f57600080fd5b5061032a60048036038101906103259190612c8f565b61145e565b6040516103379190612f6a565b60405180910390f35b34801561034c57600080fd5b50610355611476565b6040516103629190612f6a565b60405180910390f35b34801561037757600080fd5b50610392600480360381019061038d9190612c38565b61147c565b005b3480156103a057600080fd5b506103bb60048036038101906103b69190612f85565b611988565b005b3480156103c957600080fd5b506103e460048036038101906103df9190612fe1565b611c1e565b005b3480156103f257600080fd5b5061040d60048036038101906104089190612c8f565b612559565b005b6060600680548060200260200160405190810160405280929190818152602001828054801561049357602002820191906000526020600020905b8160009054906101000a900473ffffffffffffffffffffffffffffffffffffffff1673ffffffffffffffffffffffffffffffffffffffff1681526020019060010190808311610449575b5050505050905090565b60008054906101000a900473ffffffffffffffffffffffffffffffffffffffff1673ffffffffffffffffffffffffffffffffffffffff163373ffffffffffffffffffffffffffffffffffffffff161461052b576040517f08c379a0000000000000000000000000000000000000000000000000000000008152600401610522906130c2565b60405180910390fd5b81600560008373ffffffffffffffffffffffffffffffffffffffff1673ffffffffffffffffffffffffffffffffffffffff168152602001908152602001600020908161057791906132ee565b506006819080600181540180825580915050600190039060005260206000200160009091909190916101000a81548173ffffffffffffffffffffffffffffffffffffffff021916908373ffffffffffffffffffffffffffffffffffffffff1602179055505050565b600060038111156105f3576105f2612e10565b5b82600381111561060657610605612e10565b5b03610646576040517f08c379a000000000000000000000000000000000000000000000000000000000815260040161063d90613432565b60405180910390fd5b600073ffffffffffffffffffffffffffffffffffffffff168173ffffffffffffffffffffffffffffffffffffffff16036106b5576040517f08c379a00000000000000000000000000000000000000000000000000000000081526004016106ac9061349e565b60405180910390fd5b6000600260008581526020019081526020016000206040518061012001604052908160008201548152602001600182015481526020016002820180546106fa90613111565b80601f016020809104026020016040519081016040528092919081815260200182805461072690613111565b80156107735780601f1061074857610100808354040283529160200191610773565b820191906000526020600020905b81548152906001019060200180831161075657829003601f168201915b505050505081526020016003820160009054906101000a900460ff1660038111156107a1576107a0612e10565b5b60038111156107b3576107b2612e10565b5b81526020016003820160019054906101000a900460ff1660058111156107dc576107db612e10565b5b60058111156107ee576107ed612e10565b5b81526020016003820160029054906101000a900473ffffffffffffffffffffffffffffffffffffffff1673ffffffffffffffffffffffffffffffffffffffff1673ffffffffffffffffffffffffffffffffffffffff1681526020016004820160009054906101000a900473ffffffffffffffffffffffffffffffffffffffff1673ffffffffffffffffffffffffffffffffffffffff1673ffffffffffffffffffffffffffffffffffffffff1681526020016005820160009054906101000a900473ffffffffffffffffffffffffffffffffffffffff1673ffffffffffffffffffffffffffffffffffffffff1673ffffffffffffffffffffffffffffffffffffffff16815260200160068201805461090490613111565b80601f016020809104026020016040519081016040528092919081815260200182805461093090613111565b801561097d5780601f106109525761010080835404028352916020019161097d565b820191906000526020600020905b81548152906001019060200180831161096057829003601f168201915b505050505081525050905060008160200151116109cf576040517f08c379a00000000000000000000000000000000000000000000000000000000081526004016109c69061350a565b60405180910390fd5b80602001513414610a15576040517f08c379a0000000000000000000000000000000000000000000000000000000008152600401610a0c9061359c565b60405180910390fd5b8281606001906003811115610a2d57610a2c612e10565b5b90816003811115610a4157610a40612e10565b5b81525050600181608001906005811115610a5e57610a5d612e10565b5b90816005811115610a7257610a71612e10565b5b81525050818160c0019073ffffffffffffffffffffffffffffffffffffffff16908173ffffffffffffffffffffffffffffffffffffffff1681525050338160e0019073ffffffffffffffffffffffffffffffffffffffff16908173ffffffffffffffffffffffffffffffffffffffff1681525050806002600086815260200190815260200160002060008201518160000155602082015181600101556040820151816002019081610b2391906132ee565b5060608201518160030160006101000a81548160ff02191690836003811115610b4f57610b4e612e10565b5b021790555060808201518160030160016101000a81548160ff02191690836005811115610b7f57610b7e612e10565b5b021790555060a08201518160030160026101000a81548173ffffffffffffffffffffffffffffffffffffffff021916908373ffffffffffffffffffffffffffffffffffffffff16021790555060c08201518160040160006101000a81548173ffffffffffffffffffffffffffffffffffffffff021916908373ffffffffffffffffffffffffffffffffffffffff16021790555060e08201518160050160006101000a81548173ffffffffffffffffffffffffffffffffffffffff021916908373ffffffffffffffffffffffffffffffffffffffff160217905550610100820151816006019081610c6f91906132ee565b5090505050505050565b60068181548110610c8957600080fd5b906000526020600020016000915054906101000a900473ffffffffffffffffffffffffffffffffffffffff1681565b60056020528060005260406000206000915090508054610cd790613111565b80601f0160208091040260200160405190810160405280929190818152602001828054610d0390613111565b8015610d505780601f10610d2557610100808354040283529160200191610d50565b820191906000526020600020905b815481529060010190602001808311610d3357829003601f168201915b505050505081565b6000600580811115610d6d57610d6c612e10565b5b826005811115610d8057610d7f612e10565b5b03610d8e5760009050610ff5565b60016003811115610da257610da1612e10565b5b836003811115610db557610db4612e10565b5b148015610de6575060026005811115610dd157610dd0612e10565b5b826005811115610de457610de3612e10565b5b145b15610df45760009050610ff5565b60016003811115610e0857610e07612e10565b5b836003811115610e1b57610e1a612e10565b5b148015610e4c575060046005811115610e3757610e36612e10565b5b826005811115610e4a57610e49612e10565b5b145b15610e5a5760009050610ff5565b60026003811115610e6e57610e6d612e10565b5b836003811115610e8157610e80612e10565b5b148015610eb2575060026005811115610e9d57610e9c612e10565b5b826005811115610eb057610eaf612e10565b5b145b15610ec05760019050610ff5565b60026003811115610ed457610ed3612e10565b5b836003811115610ee757610ee6612e10565b5b148015610f18575060046005811115610f0357610f02612e10565b5b826005811115610f1657610f15612e10565b5b145b15610f265760009050610ff5565b600380811115610f3957610f38612e10565b5b836003811115610f4c57610f4b612e10565b5b148015610f7d575060026005811115610f6857610f67612e10565b5b826005811115610f7b57610f7a612e10565b5b145b15610f8b5760019050610ff5565b600380811115610f9e57610f9d612e10565b5b836003811115610fb157610fb0612e10565b5b148015610fe2575060046005811115610fcd57610fcc612e10565b5b826005811115610fe057610fdf612e10565b5b145b15610ff05760019050610ff5565b600090505b92915050565b600260205280600052604060002060009150905080600001549080600101549080600201805461102a90613111565b80601f016020809104026020016040519081016040528092919081815260200182805461105690613111565b80156110a35780601f10611078576101008083540402835291602001916110a3565b820191906000526020600020905b81548152906001019060200180831161108657829003601f168201915b5050505050908060030160009054906101000a900460ff16908060030160019054906101000a900460ff16908060030160029054906101000a900473ffffffffffffffffffffffffffffffffffffffff16908060040160009054906101000a900473ffffffffffffffffffffffffffffffffffffffff16908060050160009054906101000a900473ffffffffffffffffffffffffffffffffffffffff169080600601805461115090613111565b80601f016020809104026020016040519081016040528092919081815260200182805461117c90613111565b80156111c95780601f1061119e576101008083540402835291602001916111c9565b820191906000526020600020905b8154815290600101906020018083116111ac57829003601f168201915b5050505050905089565b6000600360003373ffffffffffffffffffffffffffffffffffffffff1673ffffffffffffffffffffffffffffffffffffffff1681526020019081526020016000205490506000811161125a576040517f08c379a000000000000000000000000000000000000000000000000000000000815260040161125190613608565b60405180910390fd5b3373ffffffffffffffffffffffffffffffffffffffff166108fc829081150290604051600060405180830381858888f193505050501580156112a0573d6000803e3d6000fd5b5050565b60036020528060005260406000206000915090505481565b6000600460003373ffffffffffffffffffffffffffffffffffffffff1673ffffffffffffffffffffffffffffffffffffffff16815260200190815260200160002054905060008111611343576040517f08c379a000000000000000000000000000000000000000000000000000000000815260040161133a90613608565b60405180910390fd5b3373ffffffffffffffffffffffffffffffffffffffff166108fc829081150290604051600060405180830381858888f19350505050158015611389573d6000803e3d6000fd5b5050565b60008054906101000a900473ffffffffffffffffffffffffffffffffffffffff1673ffffffffffffffffffffffffffffffffffffffff163373ffffffffffffffffffffffffffffffffffffffff161461141b576040517f08c379a00000000000000000000000000000000000000000000000000000000081526004016114129061369a565b60405180910390fd5b806000806101000a81548173ffffffffffffffffffffffffffffffffffffffff021916908373ffffffffffffffffffffffffffffffffffffffff16021790555050565b60046020528060005260406000206000915090505481565b60015481565b6000600260008381526020019081526020016000206040518061012001604052908160008201548152602001600182015481526020016002820180546114c190613111565b80601f01602080910402602001604051908101604052809291908181526020018280546114ed90613111565b801561153a5780601f1061150f5761010080835404028352916020019161153a565b820191906000526020600020905b81548152906001019060200180831161151d57829003601f168201915b505050505081526020016003820160009054906101000a900460ff16600381111561156857611567612e10565b5b600381111561157a57611579612e10565b5b81526020016003820160019054906101000a900460ff1660058111156115a3576115a2612e10565b5b60058111156115b5576115b4612e10565b5b81526020016003820160029054906101000a900473ffffffffffffffffffffffffffffffffffffffff1673ffffffffffffffffffffffffffffffffffffffff1673ffffffffffffffffffffffffffffffffffffffff1681526020016004820160009054906101000a900473ffffffffffffffffffffffffffffffffffffffff1673ffffffffffffffffffffffffffffffffffffffff1673ffffffffffffffffffffffffffffffffffffffff1681526020016005820160009054906101000a900473ffffffffffffffffffffffffffffffffffffffff1673ffffffffffffffffffffffffffffffffffffffff1673ffffffffffffffffffffffffffffffffffffffff1681526020016006820180546116cb90613111565b80601f01602080910402602001604051908101604052809291908181526020018280546116f790613111565b80156117445780601f1061171957610100808354040283529160200191611744565b820191906000526020600020905b81548152906001019060200180831161172757829003601f168201915b50505050508152505090506000816020015111611796576040517f08c379a000000000000000000000000000000000000000000000000000000000815260040161178d9061350a565b60405180910390fd5b3373ffffffffffffffffffffffffffffffffffffffff168160e0015173ffffffffffffffffffffffffffffffffffffffff1614611808576040517f08c379a00000000000000000000000000000000000000000000000000000000081526004016117ff9061372c565b60405180910390fd5b6001600581111561181c5761181b612e10565b5b8160800151600581111561183357611832612e10565b5b03611873576040517f08c379a000000000000000000000000000000000000000000000000000000000815260040161186a906137be565b60405180910390fd5b6003600581111561188757611886612e10565b5b8160800151600581111561189e5761189d612e10565b5b036118de576040517f08c379a00000000000000000000000000000000000000000000000000000000081526004016118d590613876565b60405180910390fd5b60006118f282606001518360800151610d58565b905080611934576040517f08c379a000000000000000000000000000000000000000000000000000000000815260040161192b90613908565b60405180910390fd5b8160e0015173ffffffffffffffffffffffffffffffffffffffff166108fc83602001519081150290604051600060405180830381858888f19350505050158015611982573d6000803e3d6000fd5b50505050565b600081511161199657600080fd5b600082116119a357600080fd5b60006001549050600080600033905060008060006040518060200160405280600081525090506040518061012001604052808881526020018a81526020018981526020018760038111156119fa576119f9612e10565b5b8152602001866005811115611a1257611a11612e10565b5b81526020018573ffffffffffffffffffffffffffffffffffffffff1681526020018473ffffffffffffffffffffffffffffffffffffffff1681526020018373ffffffffffffffffffffffffffffffffffffffff168152602001828152506002600089815260200190815260200160002060008201518160000155602082015181600101556040820151816002019081611aab91906132ee565b5060608201518160030160006101000a81548160ff02191690836003811115611ad757611ad6612e10565b5b021790555060808201518160030160016101000a81548160ff02191690836005811115611b0757611b06612e10565b5b021790555060a08201518160030160026101000a81548173ffffffffffffffffffffffffffffffffffffffff021916908373ffffffffffffffffffffffffffffffffffffffff16021790555060c08201518160040160006101000a81548173ffffffffffffffffffffffffffffffffffffffff021916908373ffffffffffffffffffffffffffffffffffffffff16021790555060e08201518160050160006101000a81548173ffffffffffffffffffffffffffffffffffffffff021916908373ffffffffffffffffffffffffffffffffffffffff160217905550610100820151816006019081611bf791906132ee565b5090505060016000815480929190611c0e90613957565b9190505550505050505050505050565b60006005811115611c3257611c31612e10565b5b826005811115611c4557611c44612e10565b5b03611c85576040517f08c379a0000000000000000000000000000000000000000000000000000000008152600401611c7c906139eb565b60405180910390fd5b60016005811115611c9957611c98612e10565b5b826005811115611cac57611cab612e10565b5b03611cec576040517f08c379a0000000000000000000000000000000000000000000000000000000008152600401611ce3906139eb565b60405180910390fd5b600060026000858152602001908152602001600020604051806101200160405290816000820154815260200160018201548152602001600282018054611d3190613111565b80601f0160208091040260200160405190810160405280929190818152602001828054611d5d90613111565b8015611daa5780601f10611d7f57610100808354040283529160200191611daa565b820191906000526020600020905b815481529060010190602001808311611d8d57829003601f168201915b505050505081526020016003820160009054906101000a900460ff166003811115611dd857611dd7612e10565b5b6003811115611dea57611de9612e10565b5b81526020016003820160019054906101000a900460ff166005811115611e1357611e12612e10565b5b6005811115611e2557611e24612e10565b5b81526020016003820160029054906101000a900473ffffffffffffffffffffffffffffffffffffffff1673ffffffffffffffffffffffffffffffffffffffff1673ffffffffffffffffffffffffffffffffffffffff1681526020016004820160009054906101000a900473ffffffffffffffffffffffffffffffffffffffff1673ffffffffffffffffffffffffffffffffffffffff1673ffffffffffffffffffffffffffffffffffffffff1681526020016005820160009054906101000a900473ffffffffffffffffffffffffffffffffffffffff1673ffffffffffffffffffffffffffffffffffffffff1673ffffffffffffffffffffffffffffffffffffffff168152602001600682018054611f3b90613111565b80601f0160208091040260200160405190810160405280929190818152602001828054611f6790613111565b8015611fb45780601f10611f8957610100808354040283529160200191611fb4565b820191906000526020600020905b815481529060010190602001808311611f9757829003601f168201915b50505050508152505090506000816020015111612006576040517f08c379a0000000000000000000000000000000000000000000000000000000008152600401611ffd9061350a565b60405180910390fd5b60058081111561201957612018612e10565b5b816080015160058111156120305761202f612e10565b5b03612070576040517f08c379a000000000000000000000000000000000000000000000000000000000815260040161206790613a7d565b60405180910390fd5b6004600581111561208457612083612e10565b5b8160800151600581111561209b5761209a612e10565b5b036120db576040517f08c379a00000000000000000000000000000000000000000000000000000000081526004016120d290613b0f565b60405180910390fd5b600260058111156120ef576120ee612e10565b5b8160800151600581111561210657612105612e10565b5b03612146576040517f08c379a000000000000000000000000000000000000000000000000000000000815260040161213d90613b0f565b60405180910390fd5b8060800151600581111561215d5761215c612e10565b5b8360058111156121705761216f612e10565b5b116121b0576040517f08c379a00000000000000000000000000000000000000000000000000000000081526004016121a790613ba1565b60405180910390fd5b3373ffffffffffffffffffffffffffffffffffffffff168160c0015173ffffffffffffffffffffffffffffffffffffffff1614612222576040517f08c379a000000000000000000000000000000000000000000000000000000000815260040161221990613c33565b60405180910390fd5b828160800190600581111561223a57612239612e10565b5b9081600581111561224e5761224d612e10565b5b81525050818161010001819052506000600a826020015161226f9190613c82565b905060008260200151905060058081111561228d5761228c612e10565b5b836080015160058111156122a4576122a3612e10565b5b036123165781600360008560c0015173ffffffffffffffffffffffffffffffffffffffff1673ffffffffffffffffffffffffffffffffffffffff16815260200190815260200160002060008282546122fc9190613cb3565b925050819055508183602001516123139190613d09565b90505b600061232a84606001518560800151610d58565b15905080801561236357506003600581111561234957612348612e10565b5b846080015160058111156123605761235f612e10565b5b14155b156123c35781600460008660a0015173ffffffffffffffffffffffffffffffffffffffff1673ffffffffffffffffffffffffffffffffffffffff16815260200190815260200160002060008282546123bb9190613cb3565b925050819055505b83600260008981526020019081526020016000206000820151816000015560208201518160010155604082015181600201908161240091906132ee565b5060608201518160030160006101000a81548160ff0219169083600381111561242c5761242b612e10565b5b021790555060808201518160030160016101000a81548160ff0219169083600581111561245c5761245b612e10565b5b021790555060a08201518160030160026101000a81548173ffffffffffffffffffffffffffffffffffffffff021916908373ffffffffffffffffffffffffffffffffffffffff16021790555060c08201518160040160006101000a81548173ffffffffffffffffffffffffffffffffffffffff021916908373ffffffffffffffffffffffffffffffffffffffff16021790555060e08201518160050160006101000a81548173ffffffffffffffffffffffffffffffffffffffff021916908373ffffffffffffffffffffffffffffffffffffffff16021790555061010082015181600601908161254c91906132ee565b5090505050505050505050565b60008054906101000a900473ffffffffffffffffffffffffffffffffffffffff1673ffffffffffffffffffffffffffffffffffffffff163373ffffffffffffffffffffffffffffffffffffffff16146125e7576040517f08c379a00000000000000000000000000000000000000000000000000000000081526004016125de90613daf565b60405180910390fd5b60005b8173ffffffffffffffffffffffffffffffffffffffff166006828154811061261557612614613dcf565b5b9060005260206000200160009054906101000a900473ffffffffffffffffffffffffffffffffffffffff1673ffffffffffffffffffffffffffffffffffffffff161461266e57808061266690613957565b9150506125ea565b600660016006805490506126829190613d09565b8154811061269357612692613dcf565b5b9060005260206000200160009054906101000a900473ffffffffffffffffffffffffffffffffffffffff16600682815481106126d2576126d1613dcf565b5b9060005260206000200160006101000a81548173ffffffffffffffffffffffffffffffffffffffff021916908373ffffffffffffffffffffffffffffffffffffffff160217905550600680548061272c5761272b613dfe565b5b6001900381819060005260206000200160006101000a81549073ffffffffffffffffffffffffffffffffffffffff0219169055905560405180602001604052806000815250600560008473ffffffffffffffffffffffffffffffffffffffff1673ffffffffffffffffffffffffffffffffffffffff16815260200190815260200160002090816127bc91906132ee565b506000600360008473ffffffffffffffffffffffffffffffffffffffff1673ffffffffffffffffffffffffffffffffffffffff168152602001908152602001600020541115612892576000600360008473ffffffffffffffffffffffffffffffffffffffff1673ffffffffffffffffffffffffffffffffffffffff1681526020019081526020016000205490508273ffffffffffffffffffffffffffffffffffffffff166108fc829081150290604051600060405180830381858888f1935050505015801561288f573d6000803e3d6000fd5b50505b5050565b600081519050919050565b600082825260208201905092915050565b6000819050602082019050919050565b600073ffffffffffffffffffffffffffffffffffffffff82169050919050565b60006128ed826128c2565b9050919050565b6128fd816128e2565b82525050565b600061290f83836128f4565b60208301905092915050565b6000602082019050919050565b600061293382612896565b61293d81856128a1565b9350612948836128b2565b8060005b838110156129795781516129608882612903565b975061296b8361291b565b92505060018101905061294c565b5085935050505092915050565b600060208201905081810360008301526129a08184612928565b905092915050565b6000604051905090565b600080fd5b600080fd5b600080fd5b600080fd5b6000601f19601f8301169050919050565b7f4e487b7100000000000000000000000000000000000000000000000000000000600052604160045260246000fd5b612a0f826129c6565b810181811067ffffffffffffffff82111715612a2e57612a2d6129d7565b5b80604052505050565b6000612a416129a8565b9050612a4d8282612a06565b919050565b600067ffffffffffffffff821115612a6d57612a6c6129d7565b5b612a76826129c6565b9050602081019050919050565b82818337600083830152505050565b6000612aa5612aa084612a52565b612a37565b905082815260208101848484011115612ac157612ac06129c1565b5b612acc848285612a83565b509392505050565b600082601f830112612ae957612ae86129bc565b5b8135612af9848260208601612a92565b91505092915050565b612b0b816128e2565b8114612b1657600080fd5b50565b600081359050612b2881612b02565b92915050565b60008060408385031215612b4557612b446129b2565b5b600083013567ffffffffffffffff811115612b6357612b626129b7565b5b612b6f85828601612ad4565b9250506020612b8085828601612b19565b9150509250929050565b6000819050919050565b612b9d81612b8a565b8114612ba857600080fd5b50565b600081359050612bba81612b94565b92915050565b60048110612bcd57600080fd5b50565b600081359050612bdf81612bc0565b92915050565b600080600060608486031215612bfe57612bfd6129b2565b5b6000612c0c86828701612bab565b9350506020612c1d86828701612bd0565b9250506040612c2e86828701612b19565b9150509250925092565b600060208284031215612c4e57612c4d6129b2565b5b6000612c5c84828501612bab565b91505092915050565b612c6e816128e2565b82525050565b6000602082019050612c896000830184612c65565b92915050565b600060208284031215612ca557612ca46129b2565b5b6000612cb384828501612b19565b91505092915050565b600081519050919050565b600082825260208201905092915050565b60005b83811015612cf6578082015181840152602081019050612cdb565b83811115612d05576000848401525b50505050565b6000612d1682612cbc565b612d208185612cc7565b9350612d30818560208601612cd8565b612d39816129c6565b840191505092915050565b60006020820190508181036000830152612d5e8184612d0b565b905092915050565b60068110612d7357600080fd5b50565b600081359050612d8581612d66565b92915050565b60008060408385031215612da257612da16129b2565b5b6000612db085828601612bd0565b9250506020612dc185828601612d76565b9150509250929050565b60008115159050919050565b612de081612dcb565b82525050565b6000602082019050612dfb6000830184612dd7565b92915050565b612e0a81612b8a565b82525050565b7f4e487b7100000000000000000000000000000000000000000000000000000000600052602160045260246000fd5b60048110612e5057612e4f612e10565b5b50565b6000819050612e6182612e3f565b919050565b6000612e7182612e53565b9050919050565b612e8181612e66565b82525050565b60068110612e9857612e97612e10565b5b50565b6000819050612ea982612e87565b919050565b6000612eb982612e9b565b9050919050565b612ec981612eae565b82525050565b600061012082019050612ee5600083018c612e01565b612ef2602083018b612e01565b8181036040830152612f04818a612d0b565b9050612f136060830189612e78565b612f206080830188612ec0565b612f2d60a0830187612c65565b612f3a60c0830186612c65565b612f4760e0830185612c65565b818103610100830152612f5a8184612d0b565b90509a9950505050505050505050565b6000602082019050612f7f6000830184612e01565b92915050565b60008060408385031215612f9c57612f9b6129b2565b5b6000612faa85828601612bab565b925050602083013567ffffffffffffffff811115612fcb57612fca6129b7565b5b612fd785828601612ad4565b9150509250929050565b600080600060608486031215612ffa57612ff96129b2565b5b600061300886828701612bab565b935050602061301986828701612d76565b925050604084013567ffffffffffffffff81111561303a576130396129b7565b5b61304686828701612ad4565b9150509250925092565b7f596f7520617265206e6f7420616c6c6f77656420746f20616464206e6577207360008201527f6869707065727320000000000000000000000000000000000000000000000000602082015250565b60006130ac602883612cc7565b91506130b782613050565b604082019050919050565b600060208201905081810360008301526130db8161309f565b9050919050565b7f4e487b7100000000000000000000000000000000000000000000000000000000600052602260045260246000fd5b6000600282049050600182168061312957607f821691505b60208210810361313c5761313b6130e2565b5b50919050565b60008190508160005260206000209050919050565b60006020601f8301049050919050565b600082821b905092915050565b6000600883026131a47fffffffffffffffffffffffffffffffffffffffffffffffffffffffffffffffff82613167565b6131ae8683613167565b95508019841693508086168417925050509392505050565b6000819050919050565b60006131eb6131e66131e184612b8a565b6131c6565b612b8a565b9050919050565b6000819050919050565b613205836131d0565b613219613211826131f2565b848454613174565b825550505050565b600090565b61322e613221565b6132398184846131fc565b505050565b5b8181101561325d57613252600082613226565b60018101905061323f565b5050565b601f8211156132a25761327381613142565b61327c84613157565b8101602085101561328b578190505b61329f61329785613157565b83018261323e565b50505b505050565b600082821c905092915050565b60006132c5600019846008026132a7565b1980831691505092915050565b60006132de83836132b4565b9150826002028217905092915050565b6132f782612cbc565b67ffffffffffffffff8111156133105761330f6129d7565b5b61331a8254613111565b613325828285613261565b600060209050601f8311600181146133585760008415613346578287015190505b61335085826132d2565b8655506133b8565b601f19841661336686613142565b60005b8281101561338e57848901518255600182019150602085019450602081019050613369565b868310156133ab57848901516133a7601f8916826132b4565b8355505b6001600288020188555050505b505050505050565b7f4d7573742063686f6f7365206f6e65206f66207468652061766169616c626c6560008201527f20696e636f7465726d7300000000000000000000000000000000000000000000602082015250565b600061341c602a83612cc7565b9150613427826133c0565b604082019050919050565b6000602082019050818103600083015261344b8161340f565b9050919050565b7f4d7573742073656c656374206120736869707065720000000000000000000000600082015250565b6000613488601583612cc7565b915061349382613452565b602082019050919050565b600060208201905081810360008301526134b78161347b565b9050919050565b7f536869706d656e74206e6f74206578697374616e740000000000000000000000600082015250565b60006134f4601583612cc7565b91506134ff826134be565b602082019050919050565b60006020820190508181036000830152613523816134e7565b9050919050565b7f4275796572206e6565647320746f20706179207468652065786163742070726960008201527f6365000000000000000000000000000000000000000000000000000000000000602082015250565b6000613586602283612cc7565b91506135918261352a565b604082019050919050565b600060208201905081810360008301526135b581613579565b9050919050565b7f596f75722062616c616e6365206d75737420626520706f736974697665000000600082015250565b60006135f2601d83612cc7565b91506135fd826135bc565b602082019050919050565b60006020820190508181036000830152613621816135e5565b9050919050565b7f596f7520617265206e6f7420616c6c6f77656420746f206368616e676520746860008201527f65206f776e657273686970000000000000000000000000000000000000000000602082015250565b6000613684602b83612cc7565b915061368f82613628565b604082019050919050565b600060208201905081810360008301526136b381613677565b9050919050565b7f596f7520617265206e6f7420746865206275796572206f66207468697320736860008201527f69706d656e740000000000000000000000000000000000000000000000000000602082015250565b6000613716602683612cc7565b9150613721826136ba565b604082019050919050565b6000602082019050818103600083015261374581613709565b9050919050565b7f596f7520617265206e6f7420616c6c6f77656420746f2077697468647261772060008201527f66756e64732c207768696c6520736869706d656e74206973204f726465726400602082015250565b60006137a8603f83612cc7565b91506137b38261374c565b604082019050919050565b600060208201905081810360008301526137d78161379b565b9050919050565b7f596f7520617265206e6f7420616c6c6f77656420746f2077697468647261772060008201527f66756e64732c207768696c6520736869706d656e7420697320496e5472616e7360208201527f6974000000000000000000000000000000000000000000000000000000000000604082015250565b6000613860604283612cc7565b915061386b826137de565b606082019050919050565b6000602082019050818103600083015261388f81613853565b9050919050565b7f596f7520617265206e6f7420616c6c6f77656420746f2077697468647261772060008201527f66756e6473000000000000000000000000000000000000000000000000000000602082015250565b60006138f2602583612cc7565b91506138fd82613896565b604082019050919050565b60006020820190508181036000830152613921816138e5565b9050919050565b7f4e487b7100000000000000000000000000000000000000000000000000000000600052601160045260246000fd5b600061396282612b8a565b91507fffffffffffffffffffffffffffffffffffffffffffffffffffffffffffffffff820361399457613993613928565b5b600182019050919050565b7f4d7573742073656c65637420612076616c696420737461747573000000000000600082015250565b60006139d5601a83612cc7565b91506139e08261399f565b602082019050919050565b60006020820190508181036000830152613a04816139c8565b9050919050565b7f43616e277420736574207468652073746174757320617320612064656c69766560008201527f7265642074776963650000000000000000000000000000000000000000000000602082015250565b6000613a67602983612cc7565b9150613a7282613a0b565b604082019050919050565b60006020820190508181036000830152613a9681613a5a565b9050919050565b7f43616e2774207265636f766572206120736869706d656e74206966206974206660008201527f61696c6564000000000000000000000000000000000000000000000000000000602082015250565b6000613af9602583612cc7565b9150613b0482613a9d565b604082019050919050565b60006020820190508181036000830152613b2881613aec565b9050919050565b7f43616e27742073656c65637420612073746174652074686174206973206c6f7760008201527f6572207468616e207468652061637475616c206f6e6500000000000000000000602082015250565b6000613b8b603683612cc7565b9150613b9682613b2f565b604082019050919050565b60006020820190508181036000830152613bba81613b7e565b9050919050565b7f596f7520617265206e6f7420616c6c6f77656420746f206368616e676520746860008201527f697320736869706d656e74207374617475730000000000000000000000000000602082015250565b6000613c1d603283612cc7565b9150613c2882613bc1565b604082019050919050565b60006020820190508181036000830152613c4c81613c10565b9050919050565b7f4e487b7100000000000000000000000000000000000000000000000000000000600052601260045260246000fd5b6000613c8d82612b8a565b9150613c9883612b8a565b925082613ca857613ca7613c53565b5b828204905092915050565b6000613cbe82612b8a565b9150613cc983612b8a565b9250827fffffffffffffffffffffffffffffffffffffffffffffffffffffffffffffffff03821115613cfe57613cfd613928565b5b828201905092915050565b6000613d1482612b8a565b9150613d1f83612b8a565b925082821015613d3257613d31613928565b5b828203905092915050565b7f596f7520617265206e6f7420616c6c6f77656420746f2064656c65746520736860008201527f6970706572730000000000000000000000000000000000000000000000000000602082015250565b6000613d99602683612cc7565b9150613da482613d3d565b604082019050919050565b60006020820190508181036000830152613dc881613d8c565b9050919050565b7f4e487b7100000000000000000000000000000000000000000000000000000000600052603260045260246000fd5b7f4e487b7100000000000000000000000000000000000000000000000000000000600052603160045260246000fdfea264697066735822122051159720cb25f87d86018e5ff2ca431de8bd805102f0015251d4221698737e7064736f6c634300080f0033",
  "immutableReferences": {},
  "source": "//SPDX-License-Identifier: MIT\n\npragma solidity >=0.8.15 <0.9.0;\n\n\ncontract Ethership {\n    address owner;\n    uint public totalShipments = 0;\n\n    enum Incoterm {\n        NONE,\n        EXW,\n        FCA,\n        CPT\n    }\n\n    enum Status {\n        OnSale,\n        Ordered,\n        FailuredBeforeTransit,\n        InTransit,\n        FailureBeforeDelivery,\n        Delivered\n    }\n\n    struct Shipment {\n        uint id;\n        uint price;\n        string title;\n        Incoterm contracted_incoterm;\n        Status status;\n        address seller;\n        address shipper;\n        address buyer;\n        string shipper_notes;\n    }\n\n    mapping(uint => Shipment) public shipments;\n    mapping(address => uint) public shippersBalance;\n    mapping(address => uint) public sellersBalance;\n    mapping(address=>string) public allowedShippersName;\n    address[] public allowedShippersAddress;\n\n    constructor() {\n        owner = msg.sender;\n    }\n\n    // updateOwner\n    function updateOwner(address _newOwner) public{\n        require(msg.sender==owner,\"You are not allowed to change the ownership\");\n        owner = _newOwner;\n    }\n\n    // this gets executed by a seller\n    function createShipment(uint _price, string memory _title) public {\n        require(bytes(_title).length > 0);\n        require(_price > 0);\n\n        uint _id = totalShipments;\n        Incoterm _contracted_incoterm = Incoterm.NONE;\n        Status _status = Status.OnSale;\n        address _seller = msg.sender;\n        address _shipper = address(0);\n        address _buyer = address(0);\n        string memory _notes = \"\";\n        shipments[_id] = Shipment(_id, _price, _title, _contracted_incoterm, _status, _seller, _shipper, _buyer, _notes);\n\n        totalShipments++;\n    }\n\n    function getAllowedShippers() public view returns (address[] memory) {\n        return allowedShippersAddress;\n    }\n\n    //createShipper\n    function createShipper(string memory _shipperName, address _shipperAddress) public {\n        require(msg.sender==owner,\"You are not allowed to add new shippers \");\n        allowedShippersName[_shipperAddress] = _shipperName;\n        allowedShippersAddress.push(_shipperAddress);\n    }\n    //deleteShipper\n    function deleteShipper(address _shipperAddress) public {\n        require(msg.sender==owner,\"You are not allowed to delete shippers\");\n        // find and delete shipperAddress from the array of shippers\n        uint _index = 0;\n        while (allowedShippersAddress[_index] != _shipperAddress){\n            _index++;\n        }\n        allowedShippersAddress[_index] = allowedShippersAddress[allowedShippersAddress.length - 1];\n        allowedShippersAddress.pop();\n        \n        // deleteShipperAddress from the name mappings\n        allowedShippersName[_shipperAddress] = \"\";\n\n        // send any remaining balance to the shipper\n        if(shippersBalance[_shipperAddress]>0) {\n            //Withdraw the balance og the shipper\n            uint balance = shippersBalance[_shipperAddress];\n            payable(_shipperAddress).transfer(balance);\n        }\n    }\n\n\n    // this gets executed by a buyer\n    function buyShipment(uint _id, Incoterm _selected_incoterm, address _shipper) public payable {\n        require(_selected_incoterm != Incoterm.NONE, \"Must choose one of the avaialble incoterms\");\n        // TODO: Create a list of available shipper\n        require(_shipper != address(0), \"Must select a shipper\");\n\n        Shipment memory _shipment = shipments[_id];\n        require(_shipment.price > 0, \"Shipment not existant\");\n\n        require(msg.value == _shipment.price, \"Buyer needs to pay the exact price\");\n\n        _shipment.contracted_incoterm = _selected_incoterm;\n        _shipment.status = Status.Ordered;\n        _shipment.shipper = _shipper;\n        _shipment.buyer = msg.sender;\n\n        shipments[_id] = _shipment;\n    }\n\n    // this gets executed by the shipper\n    function updateShipment(uint _id, Status _status, string memory _notes) public{\n        require(_status != Status.OnSale, \"Must select a valid status\");\n        require(_status != Status.Ordered, \"Must select a valid status\");\n        \n        Shipment memory _shipment = shipments[_id];\n        require(_shipment.price > 0, \"Shipment not existant\");\n        //If shipment is in state FailuredBeforeTransit,FailureBeforeDelivery or Delivered, then it can't be accessed anymore, \n        //you can't put a status that is lower than the actual status\n        require(_shipment.status != Status.Delivered, \"Can't set the status as a delivered twice\");\n        require(_shipment.status != Status.FailureBeforeDelivery, \"Can't recover a shipment if it failed\");\n        require(_shipment.status != Status.FailuredBeforeTransit, \"Can't recover a shipment if it failed\");\n        require(_status>_shipment.status,\"Can't select a state that is lower than the actual one\");\n        //The function caller must be the shipment shipper\n        require(_shipment.shipper==msg.sender,\"You are not allowed to change this shipment status\");\n        _shipment.status = _status;\n        _shipment.shipper_notes = _notes;\n\n        uint _shipper_rev = _shipment.price / 10;\n        uint _seller_rev = _shipment.price;\n\n        // If Shipment is delivered, seller only gets 90%\n        // If Incoterm (like the insurance happens), seller gets 100%\n        if (_shipment.status == Status.Delivered){\n            shippersBalance[_shipment.shipper] += _shipper_rev;\n            _seller_rev = _shipment.price - _shipper_rev;\n        }\n\n        bool updateSellerBalance = !canBuyerWithdrawFunds(_shipment.contracted_incoterm, _shipment.status);\n\n        if (updateSellerBalance && _shipment.status != Status.InTransit){\n            sellersBalance[_shipment.seller] += _seller_rev;\n        }\n\n        shipments[_id] = _shipment;\n        \n    }\n\n    function canBuyerWithdrawFunds(Incoterm _incoterm, Status _status) public pure returns (bool){\n        /*\n        CanBuyerWithdrawFunds\n        DELIVERED = NEI_MONEY\n        EXW,  (FailuredBeforeTransit, FailureBeforeDelivery) = (NEI_MONEY, NEI_MONEY)\n        FCA,  (FailuredBeforeTransit, FailureBeforeDelivery) = (YEI_MONEY, NEI_MONEY)\n        CPT,  (FailuredBeforeTransit, FailureBeforeDelivery) = (YEI_MONEY, YEI_MONEY)\n        CanSellerWithdrawFunds == !CanBuyerWithdawFunds\n        DELIVERED = YEI_MONEY\n        EXW,  (FailuredBeforeTransit, FailureBeforeDelivery) = (YEI_MONEY, YEI_MONEY)\n        FCA,  (FailuredBeforeTransit, FailureBeforeDelivery) = (NEI_MONEY, YEI_MONEY)\n        CPT,  (FailuredBeforeTransit, FailureBeforeDelivery) = (NEI_MONEY, NEI_MONEY)\n        */\n        \n        if (_status == Status.Delivered){\n            return false;\n        }\n\n        // Incoterms cover the FailureBeforeTransit and FailureBeforeDelivery\n        if (_incoterm == Incoterm.EXW && _status == Status.FailuredBeforeTransit){\n            return false;\n        }\n\n        if (_incoterm == Incoterm.EXW && _status == Status.FailureBeforeDelivery){\n            return false;\n        }\n\n        if (_incoterm == Incoterm.FCA && _status == Status.FailuredBeforeTransit){\n            return true;\n        }\n\n        if (_incoterm == Incoterm.FCA && _status == Status.FailureBeforeDelivery){\n            return false;\n        }\n\n        if (_incoterm == Incoterm.CPT && _status == Status.FailuredBeforeTransit){\n            return true;\n        }\n\n        if (_incoterm == Incoterm.CPT && _status == Status.FailureBeforeDelivery){\n            return true;\n        }\n        return false;\n    }\n\n    function buyerWithdraw(uint _id) public {\n        Shipment memory _shipment = shipments[_id];\n        require(_shipment.price > 0, \"Shipment not existant\");\n\n        require(_shipment.buyer == msg.sender, \"You are not the buyer of this shipment\");\n\n        require(_shipment.status != Status.Ordered, \"You are not allowed to withdraw funds, while shipment is Orderd\");\n        require(_shipment.status != Status.InTransit, \"You are not allowed to withdraw funds, while shipment is InTransit\");\n\n        bool canWithdraw = canBuyerWithdrawFunds(_shipment.contracted_incoterm, _shipment.status);\n        require(canWithdraw, \"You are not allowed to withdraw funds\");\n\n        payable(_shipment.buyer).transfer(_shipment.price);\n    }\n    function sellerWithdraw() public {\n        uint balance = sellersBalance[msg.sender];\n        require(balance > 0, \"Your balance must be positive\");\n\n        payable(msg.sender).transfer(balance);\n    }\n    function shipperWithdraw() public {\n        uint balance = shippersBalance[msg.sender];\n        require(balance > 0, \"Your balance must be positive\");\n\n        payable(msg.sender).transfer(balance);\n    }\n\n\n\n}",
  "sourcePath": "/Users/luiscabrera/Inbox/ethership/contracts/Ethership.sol",
  "compiler": {
    "name": "solc",
    "version": "0.8.15+commit.e14f2714.Emscripten.clang"
  },
  "schemaVersion": "3.4.10",
  "updatedAt": "2022-12-17T23:09:39.730Z",
  "networkType": "ethereum",
  "devdoc": {
    "kind": "dev",
    "methods": {},
    "version": 1
  },
  "userdoc": {
    "kind": "user",
    "methods": {},
    "version": 1
  }
}